{
  "_format": "hh-sol-artifact-1",
  "contractName": "EventTicket",
  "sourceName": "contracts/EventTicket.sol",
  "abi": [
    {
      "inputs": [],
      "stateMutability": "nonpayable",
      "type": "constructor"
    },
    {
      "inputs": [
        {
          "internalType": "address",
          "name": "sender",
          "type": "address"
        },
        {
          "internalType": "uint256",
          "name": "tokenId",
          "type": "uint256"
        },
        {
          "internalType": "address",
          "name": "owner",
          "type": "address"
        }
      ],
      "name": "ERC721IncorrectOwner",
      "type": "error"
    },
    {
      "inputs": [
        {
          "internalType": "address",
          "name": "operator",
          "type": "address"
        },
        {
          "internalType": "uint256",
          "name": "tokenId",
          "type": "uint256"
        }
      ],
      "name": "ERC721InsufficientApproval",
      "type": "error"
    },
    {
      "inputs": [
        {
          "internalType": "address",
          "name": "approver",
          "type": "address"
        }
      ],
      "name": "ERC721InvalidApprover",
      "type": "error"
    },
    {
      "inputs": [
        {
          "internalType": "address",
          "name": "operator",
          "type": "address"
        }
      ],
      "name": "ERC721InvalidOperator",
      "type": "error"
    },
    {
      "inputs": [
        {
          "internalType": "address",
          "name": "owner",
          "type": "address"
        }
      ],
      "name": "ERC721InvalidOwner",
      "type": "error"
    },
    {
      "inputs": [
        {
          "internalType": "address",
          "name": "receiver",
          "type": "address"
        }
      ],
      "name": "ERC721InvalidReceiver",
      "type": "error"
    },
    {
      "inputs": [
        {
          "internalType": "address",
          "name": "sender",
          "type": "address"
        }
      ],
      "name": "ERC721InvalidSender",
      "type": "error"
    },
    {
      "inputs": [
        {
          "internalType": "uint256",
          "name": "tokenId",
          "type": "uint256"
        }
      ],
      "name": "ERC721NonexistentToken",
      "type": "error"
    },
    {
      "inputs": [
        {
          "internalType": "address",
          "name": "owner",
          "type": "address"
        }
      ],
      "name": "OwnableInvalidOwner",
      "type": "error"
    },
    {
      "inputs": [
        {
          "internalType": "address",
          "name": "account",
          "type": "address"
        }
      ],
      "name": "OwnableUnauthorizedAccount",
      "type": "error"
    },
    {
      "anonymous": false,
      "inputs": [
        {
          "indexed": true,
          "internalType": "address",
          "name": "owner",
          "type": "address"
        },
        {
          "indexed": true,
          "internalType": "address",
          "name": "approved",
          "type": "address"
        },
        {
          "indexed": true,
          "internalType": "uint256",
          "name": "tokenId",
          "type": "uint256"
        }
      ],
      "name": "Approval",
      "type": "event"
    },
    {
      "anonymous": false,
      "inputs": [
        {
          "indexed": true,
          "internalType": "address",
          "name": "owner",
          "type": "address"
        },
        {
          "indexed": true,
          "internalType": "address",
          "name": "operator",
          "type": "address"
        },
        {
          "indexed": false,
          "internalType": "bool",
          "name": "approved",
          "type": "bool"
        }
      ],
      "name": "ApprovalForAll",
      "type": "event"
    },
    {
      "anonymous": false,
      "inputs": [
        {
          "indexed": true,
          "internalType": "uint256",
          "name": "eventId",
          "type": "uint256"
        },
        {
          "indexed": false,
          "internalType": "string",
          "name": "name",
          "type": "string"
        },
        {
          "indexed": false,
          "internalType": "uint256",
          "name": "timestamp",
          "type": "uint256"
        },
        {
          "indexed": false,
          "internalType": "uint256",
          "name": "ticketPrice",
          "type": "uint256"
        },
        {
          "indexed": false,
          "internalType": "uint256",
          "name": "totalSupply",
          "type": "uint256"
        }
      ],
      "name": "EventCreated",
      "type": "event"
    },
    {
      "anonymous": false,
      "inputs": [
        {
          "indexed": true,
          "internalType": "address",
          "name": "previousOwner",
          "type": "address"
        },
        {
          "indexed": true,
          "internalType": "address",
          "name": "newOwner",
          "type": "address"
        }
      ],
      "name": "OwnershipTransferred",
      "type": "event"
    },
    {
      "anonymous": false,
      "inputs": [
        {
          "indexed": true,
          "internalType": "address",
          "name": "buyer",
          "type": "address"
        },
        {
          "indexed": true,
          "internalType": "uint256",
          "name": "eventId",
          "type": "uint256"
        },
        {
          "indexed": false,
          "internalType": "uint256",
          "name": "tokenId",
          "type": "uint256"
        }
      ],
      "name": "TicketPurchased",
      "type": "event"
    },
    {
      "anonymous": false,
      "inputs": [
        {
          "indexed": true,
          "internalType": "address",
          "name": "from",
          "type": "address"
        },
        {
          "indexed": true,
          "internalType": "address",
          "name": "to",
          "type": "address"
        },
        {
          "indexed": true,
          "internalType": "uint256",
          "name": "tokenId",
          "type": "uint256"
        }
      ],
      "name": "Transfer",
      "type": "event"
    },
    {
      "inputs": [
        {
          "internalType": "address",
          "name": "to",
          "type": "address"
        },
        {
          "internalType": "uint256",
          "name": "tokenId",
          "type": "uint256"
        }
      ],
      "name": "approve",
      "outputs": [],
      "stateMutability": "nonpayable",
      "type": "function"
    },
    {
      "inputs": [
        {
          "internalType": "address",
          "name": "owner",
          "type": "address"
        }
      ],
      "name": "balanceOf",
      "outputs": [
        {
          "internalType": "uint256",
          "name": "",
          "type": "uint256"
        }
      ],
      "stateMutability": "view",
      "type": "function"
    },
    {
      "inputs": [
        {
          "internalType": "uint256",
          "name": "eventId",
          "type": "uint256"
        }
      ],
      "name": "buyTicket",
      "outputs": [],
      "stateMutability": "payable",
      "type": "function"
    },
    {
      "inputs": [
        {
          "internalType": "string",
          "name": "name",
          "type": "string"
        },
        {
          "internalType": "uint256",
          "name": "timestamp",
          "type": "uint256"
        },
        {
          "internalType": "uint256",
          "name": "ticketPrice",
          "type": "uint256"
        },
        {
          "internalType": "uint256",
          "name": "totalSupply",
          "type": "uint256"
        }
      ],
      "name": "createEvent",
      "outputs": [
        {
          "internalType": "uint256",
          "name": "",
          "type": "uint256"
        }
      ],
      "stateMutability": "nonpayable",
      "type": "function"
    },
    {
      "inputs": [
        {
          "internalType": "uint256",
          "name": "",
          "type": "uint256"
        }
      ],
      "name": "events",
      "outputs": [
        {
          "internalType": "string",
          "name": "name",
          "type": "string"
        },
        {
          "internalType": "uint256",
          "name": "timestamp",
          "type": "uint256"
        },
        {
          "internalType": "uint256",
          "name": "ticketPrice",
          "type": "uint256"
        },
        {
          "internalType": "uint256",
          "name": "totalSupply",
          "type": "uint256"
        },
        {
          "internalType": "uint256",
          "name": "ticketsSold",
          "type": "uint256"
        },
        {
          "internalType": "bool",
          "name": "isActive",
          "type": "bool"
        }
      ],
      "stateMutability": "view",
      "type": "function"
    },
    {
      "inputs": [
        {
          "internalType": "uint256",
          "name": "tokenId",
          "type": "uint256"
        }
      ],
      "name": "getApproved",
      "outputs": [
        {
          "internalType": "address",
          "name": "",
          "type": "address"
        }
      ],
      "stateMutability": "view",
      "type": "function"
    },
    {
      "inputs": [
        {
          "internalType": "uint256",
          "name": "eventId",
          "type": "uint256"
        }
      ],
      "name": "getEventDetails",
      "outputs": [
        {
          "internalType": "string",
          "name": "name",
          "type": "string"
        },
        {
          "internalType": "uint256",
          "name": "timestamp",
          "type": "uint256"
        },
        {
          "internalType": "uint256",
          "name": "ticketPrice",
          "type": "uint256"
        },
        {
          "internalType": "uint256",
          "name": "totalSupply",
          "type": "uint256"
        },
        {
          "internalType": "uint256",
          "name": "ticketsSold",
          "type": "uint256"
        },
        {
          "internalType": "bool",
          "name": "isActive",
          "type": "bool"
        }
      ],
      "stateMutability": "view",
      "type": "function"
    },
    {
      "inputs": [],
      "name": "getMyTickets",
      "outputs": [
        {
          "internalType": "uint256[]",
          "name": "",
          "type": "uint256[]"
        }
      ],
      "stateMutability": "view",
      "type": "function"
    },
    {
      "inputs": [
        {
          "internalType": "address",
          "name": "owner",
          "type": "address"
        },
        {
          "internalType": "address",
          "name": "operator",
          "type": "address"
        }
      ],
      "name": "isApprovedForAll",
      "outputs": [
        {
          "internalType": "bool",
          "name": "",
          "type": "bool"
        }
      ],
      "stateMutability": "view",
      "type": "function"
    },
    {
      "inputs": [],
      "name": "name",
      "outputs": [
        {
          "internalType": "string",
          "name": "",
          "type": "string"
        }
      ],
      "stateMutability": "view",
      "type": "function"
    },
    {
      "inputs": [],
      "name": "owner",
      "outputs": [
        {
          "internalType": "address",
          "name": "",
          "type": "address"
        }
      ],
      "stateMutability": "view",
      "type": "function"
    },
    {
      "inputs": [
        {
          "internalType": "uint256",
          "name": "tokenId",
          "type": "uint256"
        }
      ],
      "name": "ownerOf",
      "outputs": [
        {
          "internalType": "address",
          "name": "",
          "type": "address"
        }
      ],
      "stateMutability": "view",
      "type": "function"
    },
    {
      "inputs": [],
      "name": "renounceOwnership",
      "outputs": [],
      "stateMutability": "nonpayable",
      "type": "function"
    },
    {
      "inputs": [
        {
          "internalType": "address",
          "name": "from",
          "type": "address"
        },
        {
          "internalType": "address",
          "name": "to",
          "type": "address"
        },
        {
          "internalType": "uint256",
          "name": "tokenId",
          "type": "uint256"
        }
      ],
      "name": "safeTransferFrom",
      "outputs": [],
      "stateMutability": "nonpayable",
      "type": "function"
    },
    {
      "inputs": [
        {
          "internalType": "address",
          "name": "from",
          "type": "address"
        },
        {
          "internalType": "address",
          "name": "to",
          "type": "address"
        },
        {
          "internalType": "uint256",
          "name": "tokenId",
          "type": "uint256"
        },
        {
          "internalType": "bytes",
          "name": "data",
          "type": "bytes"
        }
      ],
      "name": "safeTransferFrom",
      "outputs": [],
      "stateMutability": "nonpayable",
      "type": "function"
    },
    {
      "inputs": [
        {
          "internalType": "address",
          "name": "operator",
          "type": "address"
        },
        {
          "internalType": "bool",
          "name": "approved",
          "type": "bool"
        }
      ],
      "name": "setApprovalForAll",
      "outputs": [],
      "stateMutability": "nonpayable",
      "type": "function"
    },
    {
      "inputs": [
        {
          "internalType": "bytes4",
          "name": "interfaceId",
          "type": "bytes4"
        }
      ],
      "name": "supportsInterface",
      "outputs": [
        {
          "internalType": "bool",
          "name": "",
          "type": "bool"
        }
      ],
      "stateMutability": "view",
      "type": "function"
    },
    {
      "inputs": [],
      "name": "symbol",
      "outputs": [
        {
          "internalType": "string",
          "name": "",
          "type": "string"
        }
      ],
      "stateMutability": "view",
      "type": "function"
    },
    {
      "inputs": [
        {
          "internalType": "uint256",
          "name": "",
          "type": "uint256"
        }
      ],
      "name": "tokenToEvent",
      "outputs": [
        {
          "internalType": "uint256",
          "name": "",
          "type": "uint256"
        }
      ],
      "stateMutability": "view",
      "type": "function"
    },
    {
      "inputs": [
        {
          "internalType": "uint256",
          "name": "tokenId",
          "type": "uint256"
        }
      ],
      "name": "tokenURI",
      "outputs": [
        {
          "internalType": "string",
          "name": "",
          "type": "string"
        }
      ],
      "stateMutability": "view",
      "type": "function"
    },
    {
      "inputs": [
        {
          "internalType": "address",
          "name": "from",
          "type": "address"
        },
        {
          "internalType": "address",
          "name": "to",
          "type": "address"
        },
        {
          "internalType": "uint256",
          "name": "tokenId",
          "type": "uint256"
        }
      ],
      "name": "transferFrom",
      "outputs": [],
      "stateMutability": "nonpayable",
      "type": "function"
    },
    {
      "inputs": [
        {
          "internalType": "address",
          "name": "newOwner",
          "type": "address"
        }
      ],
      "name": "transferOwnership",
      "outputs": [],
      "stateMutability": "nonpayable",
      "type": "function"
    },
    {
      "inputs": [
        {
          "internalType": "address",
          "name": "",
          "type": "address"
        },
        {
          "internalType": "uint256",
          "name": "",
          "type": "uint256"
        }
      ],
      "name": "userTickets",
      "outputs": [
        {
          "internalType": "uint256",
          "name": "",
          "type": "uint256"
        }
      ],
      "stateMutability": "view",
      "type": "function"
    },
    {
      "inputs": [
        {
          "internalType": "address",
          "name": "owner",
          "type": "address"
        },
        {
          "internalType": "uint256",
          "name": "tokenId",
          "type": "uint256"
        }
      ],
      "name": "verifyOwnership",
      "outputs": [
        {
          "internalType": "bool",
          "name": "",
          "type": "bool"
        }
      ],
      "stateMutability": "view",
      "type": "function"
    },
    {
      "inputs": [],
      "name": "withdrawFunds",
      "outputs": [],
      "stateMutability": "nonpayable",
      "type": "function"
    }
  ],
  "bytecode": "0x60806040523480156200001157600080fd5b50336040518060400160405280600b81526020017f4576656e745469636b65740000000000000000000000000000000000000000008152506040518060400160405280600481526020017f45544b5400000000000000000000000000000000000000000000000000000000815250816000908162000090919062000472565b508060019081620000a2919062000472565b505050600073ffffffffffffffffffffffffffffffffffffffff168173ffffffffffffffffffffffffffffffffffffffff16036200011a5760006040517f1e4fbdf70000000000000000000000000000000000000000000000000000000081526004016200011191906200059e565b60405180910390fd5b6200012b816200013260201b60201c565b50620005bb565b6000600660009054906101000a900473ffffffffffffffffffffffffffffffffffffffff16905081600660006101000a81548173ffffffffffffffffffffffffffffffffffffffff021916908373ffffffffffffffffffffffffffffffffffffffff1602179055508173ffffffffffffffffffffffffffffffffffffffff168173ffffffffffffffffffffffffffffffffffffffff167f8be0079c531659141344cd1fd0a4f28419497f9722a3daafe3b4186f6b6457e060405160405180910390a35050565b600081519050919050565b7f4e487b7100000000000000000000000000000000000000000000000000000000600052604160045260246000fd5b7f4e487b7100000000000000000000000000000000000000000000000000000000600052602260045260246000fd5b600060028204905060018216806200027a57607f821691505b60208210810362000290576200028f62000232565b5b50919050565b60008190508160005260206000209050919050565b60006020601f8301049050919050565b600082821b905092915050565b600060088302620002fa7fffffffffffffffffffffffffffffffffffffffffffffffffffffffffffffffff82620002bb565b620003068683620002bb565b95508019841693508086168417925050509392505050565b6000819050919050565b6000819050919050565b6000620003536200034d62000347846200031e565b62000328565b6200031e565b9050919050565b6000819050919050565b6200036f8362000332565b620003876200037e826200035a565b848454620002c8565b825550505050565b600090565b6200039e6200038f565b620003ab81848462000364565b505050565b5b81811015620003d357620003c760008262000394565b600181019050620003b1565b5050565b601f8211156200042257620003ec8162000296565b620003f784620002ab565b8101602085101562000407578190505b6200041f6200041685620002ab565b830182620003b0565b50505b505050565b600082821c905092915050565b6000620004476000198460080262000427565b1980831691505092915050565b600062000462838362000434565b9150826002028217905092915050565b6200047d82620001f8565b67ffffffffffffffff81111562000499576200049862000203565b5b620004a5825462000261565b620004b2828285620003d7565b600060209050601f831160018114620004ea5760008415620004d5578287015190505b620004e1858262000454565b86555062000551565b601f198416620004fa8662000296565b60005b828110156200052457848901518255600182019150602085019450602081019050620004fd565b8683101562000544578489015162000540601f89168262000434565b8355505b6001600288020188555050505b505050505050565b600073ffffffffffffffffffffffffffffffffffffffff82169050919050565b6000620005868262000559565b9050919050565b620005988162000579565b82525050565b6000602082019050620005b560008301846200058d565b92915050565b6133a080620005cb6000396000f3fe6080604052600436106101665760003560e01c806370a08231116100d1578063c87b56dd1161008a578063e1d10d8511610064578063e1d10d851461056a578063e985e9c514610595578063ec38d5a0146105d2578063f2fde38b1461061457610166565b8063c87b56dd146104b3578063cc9d7071146104f0578063cf260baf1461052d57610166565b806370a08231146103b7578063715018a6146103f45780638da5cb5b1461040b57806395d89b4114610436578063a22cb46514610461578063b88d4fde1461048a57610166565b806323b872dd1161012357806323b872dd146102b857806324600fc3146102e157806342842e0e146102f85780635b14ed0b146103215780636352211e1461035e57806367dd74ca1461039b57610166565b806301ffc9a71461016b5780630374ab0b146101a857806306fdde03146101e5578063081812fc14610210578063095ea7b31461024d5780630b79143014610276575b600080fd5b34801561017757600080fd5b50610192600480360381019061018d91906122fd565b61063d565b60405161019f9190612345565b60405180910390f35b3480156101b457600080fd5b506101cf60048036038101906101ca91906124dc565b61071f565b6040516101dc919061256e565b60405180910390f35b3480156101f157600080fd5b506101fa6108ff565b6040516102079190612608565b60405180910390f35b34801561021c57600080fd5b506102376004803603810190610232919061262a565b610991565b6040516102449190612698565b60405180910390f35b34801561025957600080fd5b50610274600480360381019061026f91906126df565b6109ad565b005b34801561028257600080fd5b5061029d6004803603810190610298919061262a565b6109c3565b6040516102af9695949392919061271f565b60405180910390f35b3480156102c457600080fd5b506102df60048036038101906102da9190612787565b610a94565b005b3480156102ed57600080fd5b506102f6610b96565b005b34801561030457600080fd5b5061031f600480360381019061031a9190612787565b610bee565b005b34801561032d57600080fd5b50610348600480360381019061034391906126df565b610c0e565b6040516103559190612345565b60405180910390f35b34801561036a57600080fd5b506103856004803603810190610380919061262a565b610c4f565b6040516103929190612698565b60405180910390f35b6103b560048036038101906103b0919061262a565b610c61565b005b3480156103c357600080fd5b506103de60048036038101906103d991906127da565b610eb5565b6040516103eb919061256e565b60405180910390f35b34801561040057600080fd5b50610409610f6f565b005b34801561041757600080fd5b50610420610f83565b60405161042d9190612698565b60405180910390f35b34801561044257600080fd5b5061044b610fad565b6040516104589190612608565b60405180910390f35b34801561046d57600080fd5b5061048860048036038101906104839190612833565b61103f565b005b34801561049657600080fd5b506104b160048036038101906104ac9190612914565b611055565b005b3480156104bf57600080fd5b506104da60048036038101906104d5919061262a565b61107a565b6040516104e79190612608565b60405180910390f35b3480156104fc57600080fd5b506105176004803603810190610512919061262a565b6110e3565b604051610524919061256e565b60405180910390f35b34801561053957600080fd5b50610554600480360381019061054f91906126df565b6110fb565b604051610561919061256e565b60405180910390f35b34801561057657600080fd5b5061057f61112c565b60405161058c9190612a55565b60405180910390f35b3480156105a157600080fd5b506105bc60048036038101906105b79190612a77565b6111c1565b6040516105c99190612345565b60405180910390f35b3480156105de57600080fd5b506105f960048036038101906105f4919061262a565b611255565b60405161060b9695949392919061271f565b60405180910390f35b34801561062057600080fd5b5061063b600480360381019061063691906127da565b611341565b005b60007f80ac58cd000000000000000000000000000000000000000000000000000000007bffffffffffffffffffffffffffffffffffffffffffffffffffffffff1916827bffffffffffffffffffffffffffffffffffffffffffffffffffffffff1916148061070857507f5b5e139f000000000000000000000000000000000000000000000000000000007bffffffffffffffffffffffffffffffffffffffffffffffffffffffff1916827bffffffffffffffffffffffffffffffffffffffffffffffffffffffff1916145b806107185750610717826113c7565b5b9050919050565b6000610729611431565b42841161076b576040517f08c379a000000000000000000000000000000000000000000000000000000000815260040161076290612b03565b60405180910390fd5b600082116107ae576040517f08c379a00000000000000000000000000000000000000000000000000000000081526004016107a590612b95565b60405180910390fd5b600083116107f1576040517f08c379a00000000000000000000000000000000000000000000000000000000081526004016107e890612c27565b60405180910390fd5b600060085490506040518060c0016040528087815260200186815260200185815260200184815260200160008152602001600115158152506009600083815260200190815260200160002060008201518160000190816108519190612e53565b506020820151816001015560408201518160020155606082015181600301556080820151816004015560a08201518160050160006101000a81548160ff021916908315150217905550905050807f72deeb9ef57375133dcdf3dd5ba7a069d5bb62851a22ce62f0f3bbd7a4343aef878787876040516108d39493929190612f25565b60405180910390a2600860008154809291906108ee90612fa0565b919050555080915050949350505050565b60606000805461090e90612c76565b80601f016020809104026020016040519081016040528092919081815260200182805461093a90612c76565b80156109875780601f1061095c57610100808354040283529160200191610987565b820191906000526020600020905b81548152906001019060200180831161096a57829003601f168201915b5050505050905090565b600061099c826114b8565b506109a682611540565b9050919050565b6109bf82826109ba61157d565b611585565b5050565b60096020528060005260406000206000915090508060000180546109e690612c76565b80601f0160208091040260200160405190810160405280929190818152602001828054610a1290612c76565b8015610a5f5780601f10610a3457610100808354040283529160200191610a5f565b820191906000526020600020905b815481529060010190602001808311610a4257829003601f168201915b5050505050908060010154908060020154908060030154908060040154908060050160009054906101000a900460ff16905086565b600073ffffffffffffffffffffffffffffffffffffffff168273ffffffffffffffffffffffffffffffffffffffff1603610b065760006040517f64a0ae92000000000000000000000000000000000000000000000000000000008152600401610afd9190612698565b60405180910390fd5b6000610b1a8383610b1561157d565b611597565b90508373ffffffffffffffffffffffffffffffffffffffff168173ffffffffffffffffffffffffffffffffffffffff1614610b90578382826040517f64283d7b000000000000000000000000000000000000000000000000000000008152600401610b8793929190612fe8565b60405180910390fd5b50505050565b610b9e611431565b610ba6610f83565b73ffffffffffffffffffffffffffffffffffffffff166108fc479081150290604051600060405180830381858888f19350505050158015610beb573d6000803e3d6000fd5b50565b610c0983838360405180602001604052806000815250611055565b505050565b60008273ffffffffffffffffffffffffffffffffffffffff16610c30836117b1565b73ffffffffffffffffffffffffffffffffffffffff1614905092915050565b6000610c5a826114b8565b9050919050565b60006009600083815260200190815260200160002090508060050160009054906101000a900460ff16610cc9576040517f08c379a0000000000000000000000000000000000000000000000000000000008152600401610cc09061306b565b60405180910390fd5b8060030154816004015410610d13576040517f08c379a0000000000000000000000000000000000000000000000000000000008152600401610d0a906130d7565b60405180910390fd5b8060020154341015610d5a576040517f08c379a0000000000000000000000000000000000000000000000000000000008152600401610d5190613143565b60405180910390fd5b80600101544210610da0576040517f08c379a0000000000000000000000000000000000000000000000000000000008152600401610d97906131af565b60405180910390fd5b60006007549050610db133826117ee565b82600a600083815260200190815260200160002081905550600b60003373ffffffffffffffffffffffffffffffffffffffff1673ffffffffffffffffffffffffffffffffffffffff168152602001908152602001600020819080600181540180825580915050600190039060005260206000200160009091909190915055816004016000815480929190610e4490612fa0565b9190505550823373ffffffffffffffffffffffffffffffffffffffff167f2a91574e12ad96234e84923e146b0946ecfb871cd8d5534dc1fdcbe87a7c01b383604051610e90919061256e565b60405180910390a360076000815480929190610eab90612fa0565b9190505550505050565b60008073ffffffffffffffffffffffffffffffffffffffff168273ffffffffffffffffffffffffffffffffffffffff1603610f285760006040517f89c62b64000000000000000000000000000000000000000000000000000000008152600401610f1f9190612698565b60405180910390fd5b600360008373ffffffffffffffffffffffffffffffffffffffff1673ffffffffffffffffffffffffffffffffffffffff168152602001908152602001600020549050919050565b610f77611431565b610f81600061180c565b565b6000600660009054906101000a900473ffffffffffffffffffffffffffffffffffffffff16905090565b606060018054610fbc90612c76565b80601f0160208091040260200160405190810160405280929190818152602001828054610fe890612c76565b80156110355780601f1061100a57610100808354040283529160200191611035565b820191906000526020600020905b81548152906001019060200180831161101857829003601f168201915b5050505050905090565b61105161104a61157d565b83836118d2565b5050565b611060848484610a94565b61107461106b61157d565b85858585611a41565b50505050565b6060611085826114b8565b506000611090611bf2565b905060008151116110b057604051806020016040528060008152506110db565b806110ba84611c09565b6040516020016110cb92919061320b565b6040516020818303038152906040525b915050919050565b600a6020528060005260406000206000915090505481565b600b602052816000526040600020818154811061111757600080fd5b90600052602060002001600091509150505481565b6060600b60003373ffffffffffffffffffffffffffffffffffffffff1673ffffffffffffffffffffffffffffffffffffffff1681526020019081526020016000208054806020026020016040519081016040528092919081815260200182805480156111b757602002820191906000526020600020905b8154815260200190600101908083116111a3575b5050505050905090565b6000600560008473ffffffffffffffffffffffffffffffffffffffff1673ffffffffffffffffffffffffffffffffffffffff16815260200190815260200160002060008373ffffffffffffffffffffffffffffffffffffffff1673ffffffffffffffffffffffffffffffffffffffff16815260200190815260200160002060009054906101000a900460ff16905092915050565b60606000806000806000806009600089815260200190815260200160002090508060000181600101548260020154836003015484600401548560050160009054906101000a900460ff168580546112ab90612c76565b80601f01602080910402602001604051908101604052809291908181526020018280546112d790612c76565b80156113245780601f106112f957610100808354040283529160200191611324565b820191906000526020600020905b81548152906001019060200180831161130757829003601f168201915b505050505095509650965096509650965096505091939550919395565b611349611431565b600073ffffffffffffffffffffffffffffffffffffffff168173ffffffffffffffffffffffffffffffffffffffff16036113bb5760006040517f1e4fbdf70000000000000000000000000000000000000000000000000000000081526004016113b29190612698565b60405180910390fd5b6113c48161180c565b50565b60007f01ffc9a7000000000000000000000000000000000000000000000000000000007bffffffffffffffffffffffffffffffffffffffffffffffffffffffff1916827bffffffffffffffffffffffffffffffffffffffffffffffffffffffff1916149050919050565b61143961157d565b73ffffffffffffffffffffffffffffffffffffffff16611457610f83565b73ffffffffffffffffffffffffffffffffffffffff16146114b65761147a61157d565b6040517f118cdaa70000000000000000000000000000000000000000000000000000000081526004016114ad9190612698565b60405180910390fd5b565b6000806114c4836117b1565b9050600073ffffffffffffffffffffffffffffffffffffffff168173ffffffffffffffffffffffffffffffffffffffff160361153757826040517f7e27328900000000000000000000000000000000000000000000000000000000815260040161152e919061256e565b60405180910390fd5b80915050919050565b60006004600083815260200190815260200160002060009054906101000a900473ffffffffffffffffffffffffffffffffffffffff169050919050565b600033905090565b6115928383836001611cd7565b505050565b6000806115a3846117b1565b9050600073ffffffffffffffffffffffffffffffffffffffff168373ffffffffffffffffffffffffffffffffffffffff16146115e5576115e4818486611e9c565b5b600073ffffffffffffffffffffffffffffffffffffffff168173ffffffffffffffffffffffffffffffffffffffff161461167657611627600085600080611cd7565b6001600360008373ffffffffffffffffffffffffffffffffffffffff1673ffffffffffffffffffffffffffffffffffffffff168152602001908152602001600020600082825403925050819055505b600073ffffffffffffffffffffffffffffffffffffffff168573ffffffffffffffffffffffffffffffffffffffff16146116f9576001600360008773ffffffffffffffffffffffffffffffffffffffff1673ffffffffffffffffffffffffffffffffffffffff168152602001908152602001600020600082825401925050819055505b846002600086815260200190815260200160002060006101000a81548173ffffffffffffffffffffffffffffffffffffffff021916908373ffffffffffffffffffffffffffffffffffffffff160217905550838573ffffffffffffffffffffffffffffffffffffffff168273ffffffffffffffffffffffffffffffffffffffff167fddf252ad1be2c89b69c2b068fc378daa952ba7f163c4a11628f55a4df523b3ef60405160405180910390a4809150509392505050565b60006002600083815260200190815260200160002060009054906101000a900473ffffffffffffffffffffffffffffffffffffffff169050919050565b611808828260405180602001604052806000815250611f60565b5050565b6000600660009054906101000a900473ffffffffffffffffffffffffffffffffffffffff16905081600660006101000a81548173ffffffffffffffffffffffffffffffffffffffff021916908373ffffffffffffffffffffffffffffffffffffffff1602179055508173ffffffffffffffffffffffffffffffffffffffff168173ffffffffffffffffffffffffffffffffffffffff167f8be0079c531659141344cd1fd0a4f28419497f9722a3daafe3b4186f6b6457e060405160405180910390a35050565b600073ffffffffffffffffffffffffffffffffffffffff168273ffffffffffffffffffffffffffffffffffffffff160361194357816040517f5b08ba1800000000000000000000000000000000000000000000000000000000815260040161193a9190612698565b60405180910390fd5b80600560008573ffffffffffffffffffffffffffffffffffffffff1673ffffffffffffffffffffffffffffffffffffffff16815260200190815260200160002060008473ffffffffffffffffffffffffffffffffffffffff1673ffffffffffffffffffffffffffffffffffffffff16815260200190815260200160002060006101000a81548160ff0219169083151502179055508173ffffffffffffffffffffffffffffffffffffffff168373ffffffffffffffffffffffffffffffffffffffff167f17307eab39ab6107e8899845ad3d59bd9653f200f220920489ca2b5937696c3183604051611a349190612345565b60405180910390a3505050565b60008373ffffffffffffffffffffffffffffffffffffffff163b1115611beb578273ffffffffffffffffffffffffffffffffffffffff1663150b7a02868685856040518563ffffffff1660e01b8152600401611aa09493929190613284565b6020604051808303816000875af1925050508015611adc57506040513d601f19601f82011682018060405250810190611ad991906132e5565b60015b611b60573d8060008114611b0c576040519150601f19603f3d011682016040523d82523d6000602084013e611b11565b606091505b506000815103611b5857836040517f64a0ae92000000000000000000000000000000000000000000000000000000008152600401611b4f9190612698565b60405180910390fd5b805181602001fd5b63150b7a0260e01b7bffffffffffffffffffffffffffffffffffffffffffffffffffffffff1916817bffffffffffffffffffffffffffffffffffffffffffffffffffffffff191614611be957836040517f64a0ae92000000000000000000000000000000000000000000000000000000008152600401611be09190612698565b60405180910390fd5b505b5050505050565b606060405180602001604052806000815250905090565b606060006001611c1884611f84565b01905060008167ffffffffffffffff811115611c3757611c3661237b565b5b6040519080825280601f01601f191660200182016040528015611c695781602001600182028036833780820191505090505b509050600082602001820190505b600115611ccc578080600190039150507f3031323334353637383961626364656600000000000000000000000000000000600a86061a8153600a8581611cc057611cbf613312565b5b04945060008503611c77575b819350505050919050565b8080611d105750600073ffffffffffffffffffffffffffffffffffffffff168273ffffffffffffffffffffffffffffffffffffffff1614155b15611e44576000611d20846114b8565b9050600073ffffffffffffffffffffffffffffffffffffffff168373ffffffffffffffffffffffffffffffffffffffff1614158015611d8b57508273ffffffffffffffffffffffffffffffffffffffff168173ffffffffffffffffffffffffffffffffffffffff1614155b8015611d9e5750611d9c81846111c1565b155b15611de057826040517fa9fbf51f000000000000000000000000000000000000000000000000000000008152600401611dd79190612698565b60405180910390fd5b8115611e4257838573ffffffffffffffffffffffffffffffffffffffff168273ffffffffffffffffffffffffffffffffffffffff167f8c5be1e5ebec7d5bd14f71427d1e84f3dd0314c0f7b2291e5b200ac8c7c3b92560405160405180910390a45b505b836004600085815260200190815260200160002060006101000a81548173ffffffffffffffffffffffffffffffffffffffff021916908373ffffffffffffffffffffffffffffffffffffffff16021790555050505050565b611ea78383836120d7565b611f5b57600073ffffffffffffffffffffffffffffffffffffffff168373ffffffffffffffffffffffffffffffffffffffff1603611f1c57806040517f7e273289000000000000000000000000000000000000000000000000000000008152600401611f13919061256e565b60405180910390fd5b81816040517f177e802f000000000000000000000000000000000000000000000000000000008152600401611f52929190613341565b60405180910390fd5b505050565b611f6a8383612198565b611f7f611f7561157d565b6000858585611a41565b505050565b600080600090507a184f03e93ff9f4daa797ed6e38ed64bf6a1f0100000000000000008310611fe2577a184f03e93ff9f4daa797ed6e38ed64bf6a1f0100000000000000008381611fd857611fd7613312565b5b0492506040810190505b6d04ee2d6d415b85acef8100000000831061201f576d04ee2d6d415b85acef8100000000838161201557612014613312565b5b0492506020810190505b662386f26fc10000831061204e57662386f26fc10000838161204457612043613312565b5b0492506010810190505b6305f5e1008310612077576305f5e100838161206d5761206c613312565b5b0492506008810190505b612710831061209c57612710838161209257612091613312565b5b0492506004810190505b606483106120bf57606483816120b5576120b4613312565b5b0492506002810190505b600a83106120ce576001810190505b80915050919050565b60008073ffffffffffffffffffffffffffffffffffffffff168373ffffffffffffffffffffffffffffffffffffffff161415801561218f57508273ffffffffffffffffffffffffffffffffffffffff168473ffffffffffffffffffffffffffffffffffffffff161480612150575061214f84846111c1565b5b8061218e57508273ffffffffffffffffffffffffffffffffffffffff1661217683611540565b73ffffffffffffffffffffffffffffffffffffffff16145b5b90509392505050565b600073ffffffffffffffffffffffffffffffffffffffff168273ffffffffffffffffffffffffffffffffffffffff160361220a5760006040517f64a0ae920000000000000000000000000000000000000000000000000000000081526004016122019190612698565b60405180910390fd5b600061221883836000611597565b9050600073ffffffffffffffffffffffffffffffffffffffff168173ffffffffffffffffffffffffffffffffffffffff161461228c5760006040517f73c6ac6e0000000000000000000000000000000000000000000000000000000081526004016122839190612698565b60405180910390fd5b505050565b6000604051905090565b600080fd5b600080fd5b60007fffffffff0000000000000000000000000000000000000000000000000000000082169050919050565b6122da816122a5565b81146122e557600080fd5b50565b6000813590506122f7816122d1565b92915050565b6000602082840312156123135761231261229b565b5b6000612321848285016122e8565b91505092915050565b60008115159050919050565b61233f8161232a565b82525050565b600060208201905061235a6000830184612336565b92915050565b600080fd5b600080fd5b6000601f19601f8301169050919050565b7f4e487b7100000000000000000000000000000000000000000000000000000000600052604160045260246000fd5b6123b38261236a565b810181811067ffffffffffffffff821117156123d2576123d161237b565b5b80604052505050565b60006123e5612291565b90506123f182826123aa565b919050565b600067ffffffffffffffff8211156124115761241061237b565b5b61241a8261236a565b9050602081019050919050565b82818337600083830152505050565b6000612449612444846123f6565b6123db565b90508281526020810184848401111561246557612464612365565b5b612470848285612427565b509392505050565b600082601f83011261248d5761248c612360565b5b813561249d848260208601612436565b91505092915050565b6000819050919050565b6124b9816124a6565b81146124c457600080fd5b50565b6000813590506124d6816124b0565b92915050565b600080600080608085870312156124f6576124f561229b565b5b600085013567ffffffffffffffff811115612514576125136122a0565b5b61252087828801612478565b9450506020612531878288016124c7565b9350506040612542878288016124c7565b9250506060612553878288016124c7565b91505092959194509250565b612568816124a6565b82525050565b6000602082019050612583600083018461255f565b92915050565b600081519050919050565b600082825260208201905092915050565b60005b838110156125c35780820151818401526020810190506125a8565b60008484015250505050565b60006125da82612589565b6125e48185612594565b93506125f48185602086016125a5565b6125fd8161236a565b840191505092915050565b6000602082019050818103600083015261262281846125cf565b905092915050565b6000602082840312156126405761263f61229b565b5b600061264e848285016124c7565b91505092915050565b600073ffffffffffffffffffffffffffffffffffffffff82169050919050565b600061268282612657565b9050919050565b61269281612677565b82525050565b60006020820190506126ad6000830184612689565b92915050565b6126bc81612677565b81146126c757600080fd5b50565b6000813590506126d9816126b3565b92915050565b600080604083850312156126f6576126f561229b565b5b6000612704858286016126ca565b9250506020612715858286016124c7565b9150509250929050565b600060c082019050818103600083015261273981896125cf565b9050612748602083018861255f565b612755604083018761255f565b612762606083018661255f565b61276f608083018561255f565b61277c60a0830184612336565b979650505050505050565b6000806000606084860312156127a05761279f61229b565b5b60006127ae868287016126ca565b93505060206127bf868287016126ca565b92505060406127d0868287016124c7565b9150509250925092565b6000602082840312156127f0576127ef61229b565b5b60006127fe848285016126ca565b91505092915050565b6128108161232a565b811461281b57600080fd5b50565b60008135905061282d81612807565b92915050565b6000806040838503121561284a5761284961229b565b5b6000612858858286016126ca565b92505060206128698582860161281e565b9150509250929050565b600067ffffffffffffffff82111561288e5761288d61237b565b5b6128978261236a565b9050602081019050919050565b60006128b76128b284612873565b6123db565b9050828152602081018484840111156128d3576128d2612365565b5b6128de848285612427565b509392505050565b600082601f8301126128fb576128fa612360565b5b813561290b8482602086016128a4565b91505092915050565b6000806000806080858703121561292e5761292d61229b565b5b600061293c878288016126ca565b945050602061294d878288016126ca565b935050604061295e878288016124c7565b925050606085013567ffffffffffffffff81111561297f5761297e6122a0565b5b61298b878288016128e6565b91505092959194509250565b600081519050919050565b600082825260208201905092915050565b6000819050602082019050919050565b6129cc816124a6565b82525050565b60006129de83836129c3565b60208301905092915050565b6000602082019050919050565b6000612a0282612997565b612a0c81856129a2565b9350612a17836129b3565b8060005b83811015612a48578151612a2f88826129d2565b9750612a3a836129ea565b925050600181019050612a1b565b5085935050505092915050565b60006020820190508181036000830152612a6f81846129f7565b905092915050565b60008060408385031215612a8e57612a8d61229b565b5b6000612a9c858286016126ca565b9250506020612aad858286016126ca565b9150509250929050565b7f4576656e74206d75737420626520696e20746865206675747572650000000000600082015250565b6000612aed601b83612594565b9150612af882612ab7565b602082019050919050565b60006020820190508181036000830152612b1c81612ae0565b9050919050565b7f546f74616c20737570706c79206d75737420626520677265617465722074686160008201527f6e20300000000000000000000000000000000000000000000000000000000000602082015250565b6000612b7f602383612594565b9150612b8a82612b23565b604082019050919050565b60006020820190508181036000830152612bae81612b72565b9050919050565b7f5469636b6574207072696365206d75737420626520677265617465722074686160008201527f6e20300000000000000000000000000000000000000000000000000000000000602082015250565b6000612c11602383612594565b9150612c1c82612bb5565b604082019050919050565b60006020820190508181036000830152612c4081612c04565b9050919050565b7f4e487b7100000000000000000000000000000000000000000000000000000000600052602260045260246000fd5b60006002820490506001821680612c8e57607f821691505b602082108103612ca157612ca0612c47565b5b50919050565b60008190508160005260206000209050919050565b60006020601f8301049050919050565b600082821b905092915050565b600060088302612d097fffffffffffffffffffffffffffffffffffffffffffffffffffffffffffffffff82612ccc565b612d138683612ccc565b95508019841693508086168417925050509392505050565b6000819050919050565b6000612d50612d4b612d46846124a6565b612d2b565b6124a6565b9050919050565b6000819050919050565b612d6a83612d35565b612d7e612d7682612d57565b848454612cd9565b825550505050565b600090565b612d93612d86565b612d9e818484612d61565b505050565b5b81811015612dc257612db7600082612d8b565b600181019050612da4565b5050565b601f821115612e0757612dd881612ca7565b612de184612cbc565b81016020851015612df0578190505b612e04612dfc85612cbc565b830182612da3565b50505b505050565b600082821c905092915050565b6000612e2a60001984600802612e0c565b1980831691505092915050565b6000612e438383612e19565b9150826002028217905092915050565b612e5c82612589565b67ffffffffffffffff811115612e7557612e7461237b565b5b612e7f8254612c76565b612e8a828285612dc6565b600060209050601f831160018114612ebd5760008415612eab578287015190505b612eb58582612e37565b865550612f1d565b601f198416612ecb86612ca7565b60005b82811015612ef357848901518255600182019150602085019450602081019050612ece565b86831015612f105784890151612f0c601f891682612e19565b8355505b6001600288020188555050505b505050505050565b60006080820190508181036000830152612f3f81876125cf565b9050612f4e602083018661255f565b612f5b604083018561255f565b612f68606083018461255f565b95945050505050565b7f4e487b7100000000000000000000000000000000000000000000000000000000600052601160045260246000fd5b6000612fab826124a6565b91507fffffffffffffffffffffffffffffffffffffffffffffffffffffffffffffffff8203612fdd57612fdc612f71565b5b600182019050919050565b6000606082019050612ffd6000830186612689565b61300a602083018561255f565b6130176040830184612689565b949350505050565b7f4576656e74206973206e6f742061637469766500000000000000000000000000600082015250565b6000613055601383612594565b91506130608261301f565b602082019050919050565b6000602082019050818103600083015261308481613048565b9050919050565b7f4576656e7420697320736f6c64206f7574000000000000000000000000000000600082015250565b60006130c1601183612594565b91506130cc8261308b565b602082019050919050565b600060208201905081810360008301526130f0816130b4565b9050919050565b7f496e73756666696369656e74207061796d656e74000000000000000000000000600082015250565b600061312d601483612594565b9150613138826130f7565b602082019050919050565b6000602082019050818103600083015261315c81613120565b9050919050565b7f4576656e742068617320616c7265616479207374617274656400000000000000600082015250565b6000613199601983612594565b91506131a482613163565b602082019050919050565b600060208201905081810360008301526131c88161318c565b9050919050565b600081905092915050565b60006131e582612589565b6131ef81856131cf565b93506131ff8185602086016125a5565b80840191505092915050565b600061321782856131da565b915061322382846131da565b91508190509392505050565b600081519050919050565b600082825260208201905092915050565b60006132568261322f565b613260818561323a565b93506132708185602086016125a5565b6132798161236a565b840191505092915050565b60006080820190506132996000830187612689565b6132a66020830186612689565b6132b3604083018561255f565b81810360608301526132c5818461324b565b905095945050505050565b6000815190506132df816122d1565b92915050565b6000602082840312156132fb576132fa61229b565b5b6000613309848285016132d0565b91505092915050565b7f4e487b7100000000000000000000000000000000000000000000000000000000600052601260045260246000fd5b60006040820190506133566000830185612689565b613363602083018461255f565b939250505056fea264697066735822122000e24775636617fa70b001ff66c4c10a3b164474121fa1279f8e254d63b09e2d64736f6c63430008140033",
  "linkReferences": {},
  "deployedLinkReferences": {}
}